:100000000C946A000C9487000C9487000C94870071
:100010000C9487000C9487000C9487000C942101A9
:100020000C9487000C9487000C9487000C94870034
:100030000C9487000C9487000C9487000C94870024
:100040000C9487000C9487000C9487000C94870014
:100050000C9487000C9487000C9487000C94870004
:100060000C9487000C94870079017E018C01B40107
:10007000DC01EB0113023B02620208000000BE92A9
:100080002449123EABAAAA2ABECDCCCC4C3E0000DD
:100090000080BEABAAAAAA3E00000000BF0000007C
:1000A000803F0000000000084178D3BB4387D11394
:1000B0003D190E3CC3BD4282AD2B3E68EC8276BE3C
:1000C000D98FE1A93E4C80EFFFBE01C4FF7F3F0006
:1000D0000000000011241FBECFEFD8E0DEBFCDBF6F
:1000E00011E0A0E0B1E0ECE9F1E102C005900D9271
:1000F000AC34B107D9F721E0ACE4B1E001C01D9206
:10010000A639B207E1F70E949C020C94CC080C942B
:100110000000CF93C82F8A3019F48DE00E94890027
:100120008091C00085FFFCCFC093C60080E090E0C6
:10013000CF91089580914C012EE7829FC001112438
:1001400086519F4F6DE070E00E94C00580934C0186
:100150000895E1ECF0E010821092C00086E08093F8
:10016000C20083E390E09093C5008093C40088E1CF
:1001700080830895ECE7F0E0808180648083EAE783
:10018000F0E08081876880830895ECE7F0E090815B
:10019000907F8F70892B8083EAE7F0E08081806414
:1001A000808380917A0086FDFCCF809178009091C9
:1001B0007900089582E8809380008FE193E0909326
:1001C0008700809386001092850010928400109220
:1001D0008B0010928A0088EC90E0909389008093C5
:1001E000880010926F0084B1826084B989E18093A5
:1001F00081000895CF93DF939FB7F894A1EBB0E00F
:100200001C92C0EBD0E01882E0E7F0E0108287E0BB
:1002100087BB109252011092530110925401109218
:1002200055011092B2008FE78093B30082E088837B
:1002300085E08C938081826080839FBFDF91CF9126
:1002400008951F920F920FB60F9211248F939F93D0
:10025000AF93BF9380914D0190914E01A0914F01BA
:10026000B09150010196A11DB11D80934D01909355
:100270004E01A0934F01B0935001BF91AF919F9158
:100280008F910F900FBE0F901F9018952FB7F89475
:1002900060914D0170914E0180914F0190915001FC
:1002A0002FBF08950F931F93CF934B990BC080914D
:1002B0005101823038F0843028F484E08093510179
:1002C000C1E034C14B9BFCCF809151018530C0F31C
:1002D0008930B0F781E080935101F2CFE091510174
:1002E000F0E0E930F10508F020C1EC5CFF4F0C9420
:1002F000D40581E080935101C0E018C182E0809371
:1003000051010E94460160936E0170936F018093CA
:100310007001909371010AC18BB18B7F8BB90E94E0
:10032000460100916E0110916F0120917001309192
:100330007101DC01CB01801B910BA20BB30B883C3C
:100340009105A105B10508F4E4C083E08093510153
:100350000E94460160936E0170936F01809370015B
:1003600090937101C0E0E2C08BB184608BB90E94B0
:10037000460100916E0110916F0120917001309142
:100380007101DC01CB01801B910BA20BB30B8032FE
:100390009340A105B10508F4BEC082E080935101ED
:1003A0000E94460160936E0170936F01809370010B
:1003B00090937101C0E0BAC085E0809351010E9422
:1003C000460160936E0170936F018093700190936A
:1003D0007101C0E0ABC08BB18B7F8BB90E9446012D
:1003E00000916E0110916F012091700130917101A7
:1003F000DC01CB01801B910BA20BB30B883C910558
:10040000A105B10508F489C086E0809351010E94DE
:10041000460160936E0170936F0180937001909319
:100420007101C0E083C08BB184608BB90E9446012A
:1004300000916E0110916F01209170013091710156
:10044000DC01CB01801B910BA20BB30B883C910507
:10045000A105B10508F463C087E0809351010E94B3
:10046000460160936E0170936F01809370019093C9
:100470007101C0E05BC08BB18B7F8BB90E944601DC
:1004800000916E0110916F01209170013091710106
:10049000DC01CB01801B910BA20BB30B883C9105B7
:1004A000A105B105F0F188E0809351010E94460159
:1004B00060936E0170936F0180937001909371014E
:1004C000C0E034C08BB184608BB90E9446010091BA
:1004D0006E0110916F012091700130917101DC016A
:1004E000CB01801B910BA20BB30B80329340A10573
:1004F000B105C8F085E0809351010E9446016093E8
:100500006E0170936F018093700190937101C0E050
:100510000DC0C0E00BC0C0E009C0C0E007C0C0E033
:1005200005C0C0E003C0C0E001C0C0E0C111D6CE2C
:10053000CF911F910F9108950E94BA000E94A900C7
:1005400080E091E090939301809392018AB184605E
:100550008AB98AB1877F8AB987B18E7F87B90E94AD
:10056000DA000E94FA007894C0EA0E9452010E94C8
:100570004601D62F172F8C2F90E0909389008093FF
:1005800088000E949A0090E00196C80F80E00E94C7
:10059000C500BC0180E090E00E94400420E030E40F
:1005A0004CE151E40E941E056B017C010E94110484
:1005B0007F936F938EE091E09F938F930E94EE055F
:1005C00020E030E44CE156E4C701B6010E949F03ED
:1005D0000E94D60460936A0170936B0180936C0152
:1005E00090936D0120E030EB46E555E40E949F03B7
:1005F0002FE03FEC4BE55BE30E9433039B01AC0132
:1006000060E070E080E89FE30E949F0323E333E90A
:1006100048E853E40E94320360938A0170938B018F
:1006200080938C0190938D011F93DF930E9411049E
:100630007F936F938CE291E09F938F930E94EE05DE
:100640002FEF8BE792E9215080409040E1F700C006
:1006500000008DB79EB70A960FB6F8949EBF0FBEE6
:100660008DBF83CF5058BB27AA270E944A030C9402
:1006700094040E94860438F00E948D0420F039F41E
:100680009F3F19F426F40C9483040EF4E095E7FBE5
:100690000C947D04E92F0E94A50458F3BA17620751
:1006A00073078407950720F079F4A6F50C94C70426
:1006B0000EF4E0950B2EBA2FA02D0B01B90190017D
:1006C0000C01CA01A0011124FF27591B99F0593FC1
:1006D00050F4503E68F11A16F040A22F232F342F09
:1006E0004427585FF3CF469537952795A795F04057
:1006F0005395C9F77EF41F16BA0B620B730B840B6C
:10070000BAF09150A1F0FF0FBB1F661F771F881F23
:10071000C2F70EC0BA0F621F731F841F48F487957B
:1007200077956795B795F7959E3F08F0B0CF93956D
:10073000880F08F09927EE0F9795879508950E94E6
:10074000B3030C9494040E948D0458F00E94860414
:1007500040F029F45F3F29F00C947D0451110C9472
:10076000C8040C9483040E94A50468F39923B1F390
:10077000552391F3951B550BBB27AA2762177307C7
:10078000840738F09F5F5F4F220F331F441FAA1F5B
:10079000A9F335D00E2E3AF0E0E832D09150504017
:1007A000E695001CCAF72BD0FE2F29D0660F771FC5
:1007B000881FBB1F261737074807AB07B0E809F0AB
:1007C000BB0B802DBF01FF2793585F4F3AF09E3F30
:1007D000510578F00C947D040C94C8045F3FE4F359
:1007E000983ED4F3869577956795B795F7959F5F73
:1007F000C9F7880F911D9695879597F90895E1E0BF
:10080000660F771F881FBB1F621773078407BA071D
:1008100020F0621B730B840BBA0BEE1F88F7E09578
:1008200008950E94AD0488F09F5798F0B92F99273A
:10083000B751B0F0E1F0660F771F881F991F1AF0CB
:10084000BA95C9F714C0B13091F00E94C704B1E065
:1008500008950C94C704672F782F8827B85F39F064
:10086000B93FCCF3869577956795B395D9F73EF464
:1008700090958095709561957F4F8F4F9F4F08950C
:10088000E89409C097FB3EF490958095709561952A
:100890007F4F8F4F9F4F9923A9F0F92F96E9BB27E0
:1008A0009395F695879577956795B795F111F8CF5C
:1008B000FAF4BB0F11F460FF1BC06F5F7F4F8F4FC7
:1008C0009F4F16C0882311F096E911C0772321F0BD
:1008D0009EE8872F762F05C0662371F096E8862F55
:1008E00070E060E02AF09A95660F771F881FDAF7AC
:1008F000880F9695879597F9089597F99F6780E8EF
:1009000070E060E008959FEF80EC089500240A9461
:100910001616170618060906089500240A941216DA
:100920001306140605060895092E0394000C11F40D
:10093000882352F0BB0F40F4BF2B11F460FF04C0BA
:100940006F5F7F4F8F4F9F4F089557FD9058440F13
:10095000551F59F05F3F71F04795880F97FB991F1E
:1009600061F09F3F79F087950895121613061406DB
:10097000551FF2CF4695F1DF08C016161706180668
:10098000991FF1CF86957105610508940895E89443
:10099000BB2766277727CB0197F9089516F00C94AB
:1009A0008B050C94830468940C947D040E94AD0420
:1009B000A8F39923C1F3AEF3DF93CF931F930F9363
:1009C000FF92C92FDD2788232AF02197660F771F12
:1009D000881FDAF720E030E040E85FEB9FE38839DA
:1009E00020F0803E38F021968F770E943303EAE7AB
:1009F000F0E004C00E943303E7EAF0E00E949905AA
:100A00008B01BE01EC01FB2E6F5771097595771FA5
:100A1000880B990B0E94420428E132E741E35FE32F
:100A20000E943105AF2D9801AE01FF900F911F91EB
:100A3000CF91DF910E944A030C9494040E943105E7
:100A40000C9494040E94860438F00E948D0420F0D7
:100A5000952311F00C947D040C94830411240C94C0
:100A6000C8040E94A50470F3959FC1F3950F50E050
:100A7000551F629FF001729FBB27F00DB11D639F50
:100A8000AA27F00DB11DAA1F649F6627B00DA11DF6
:100A9000661F829F2227B00DA11D621F739FB00D9C
:100AA000A11D621F839FA00D611D221F749F33270C
:100AB000A00D611D231F849F600D211D822F762FA5
:100AC0006A2F11249F5750409AF0F1F088234AF082
:100AD000EE0FFF1FBB1F661F771F881F91505040EE
:100AE000A9F79E3F510580F00C947D040C94C80436
:100AF0005F3FE4F3983ED4F3869577956795B79575
:100B0000F795E7959F5FC1F7FE2B880F911D96958E
:100B1000879597F908959F3F31F0915020F487957C
:100B200077956795B795880F911D9695879597F955
:100B30000895DF93CF931F930F93FF92EF92DF926D
:100B40007B018C01689406C0DA2EEF010E9431050A
:100B5000FE01E894A5912591359145915591A6F313
:100B6000EF010E944A03FE019701A801DA9469F798
:100B7000DF90EF90FF900F911F91CF91DF9108953B
:100B800097FB072E16F4009407D077FD09D00E943A
:100B9000DA0507FC05D03EF4909581959F4F0895A6
:100BA000709561957F4F0895EE0FFF1F0590F491AA
:100BB000E02D0994AA1BBB1B51E107C0AA1FBB1F54
:100BC000A617B70710F0A61BB70B881F991F5A95D9
:100BD000A9F780959095BC01CD010895A0E0B0E003
:100BE000E4EFF5E00C94A508AE014B5F5F4FFA010E
:100BF00061917191AF0180919201909193010E9456
:100C00000406E2E00C94C108ABE0B0E0EAE0F6E0F4
:100C10000C9495086C017B018A01FC0117821682F5
:100C2000838181FFCCC1CE0101963C01F601938105
:100C3000F70193FD859193FF81917F01882309F44A
:100C4000BAC1853239F493FD859193FF81917F017B
:100C5000853229F4B60190E00E94FB07E7CF912C82
:100C6000212C312CFFE1F315D8F08B3279F038F4D8
:100C7000803279F08332A1F4232D20611DC08D32A2
:100C800061F0803369F4232D216016C0832D8260CA
:100C9000382EE32DE4603E2E2AC0F32DF8601DC0EF
:100CA00037FC2DC020ED280F2A3040F08E32B9F4E9
:100CB00036FC81C1232D2064322E19C036FE06C0B9
:100CC0008AE0989E200D1124922E11C0EAE02E9EFB
:100CD000200D1124222EF32DF0623F2E08C08C36F9
:100CE00021F4832D8068382E02C0883641F4F70144
:100CF00093FD859193FF81917F018111B3CF982F4F
:100D00009F7D9554933028F40C5F1F4F9FE3998388
:100D10000DC0833631F0833771F0833509F059C047
:100D200021C0F801808189830E5F1F4F882483943E
:100D3000912C530113C02801F2E04F0E511CF80111
:100D4000A080B18036FE03C0692D70E002C06FEF55
:100D50007FEFC5010E94F0074C018201F32DFF7760
:100D60003F2E16C0280122E0420E511CF801A0803F
:100D7000B18036FE03C0692D70E002C06FEF7FEFD7
:100D8000C5010E94E5074C01F32DF0683F2E82015A
:100D900033FC1BC0822D90E088169906B0F4B60192
:100DA00080E290E00E94FB072A94F4CFF50137FC23
:100DB000859137FE81915F01B60190E00E94FB07AB
:100DC00021102A9421E0821A91088114910471F76C
:100DD000E8C0843611F0893641F5F80137FE07C0C6
:100DE00060817181828193810C5F1F4F08C0608197
:100DF0007181072E000C880B990B0E5F1F4FF32D8E
:100E0000FF763F2E97FF09C090958095709561956C
:100E10007F4F8F4F9F4FF0683F2E2AE030E0A301B5
:100E20000E943708882E861845C0853731F4232D57
:100E30002F7EB22E2AE030E025C0932D997FB92E67
:100E40008F36C1F018F4883579F0B5C0803719F0C5
:100E5000883721F0B0C0E92FE061BE2EB4FE0DC08E
:100E6000FB2DF460BF2E09C034FE0AC0292F266076
:100E7000B22E06C028E030E005C020E130E002C01C
:100E800020E132E0F801B7FE07C060817181828104
:100E900093810C5F1F4F06C06081718180E090E0FC
:100EA0000E5F1F4FA3010E943708882E8618FB2D66
:100EB000FF773F2E36FE0DC0232D2E7FA22E8914E4
:100EC00058F434FE0BC032FC09C0832D8E7EA82E50
:100ED00005C0B82CA32C03C0B82C01C0B92CA4FEAB
:100EE0000FC0FE01E80DF11D8081803321F49A2DA1
:100EF000997EA92E09C0A2FE06C0B394B39404C083
:100F00008A2D867809F0B394A3FC11C0A0FE06C018
:100F1000B21488F4280C922C9B180EC0B21460F402
:100F2000B60180E290E00E94FB07B394F7CFB214C1
:100F300018F42B1802C0982C212CA4FE10C0B60166
:100F400080E390E00E94FB07A2FE17C0A1FC03C053
:100F500088E790E002C088E590E0B6010CC08A2DD9
:100F6000867859F0A1FE02C08BE201C080E2A7FCA6
:100F70008DE2B60190E00E94FB07891438F4B601B7
:100F800080E390E00E94FB079A94F7CF8A94F301E4
:100F9000E80DF11D8081B60190E00E94FB078110F1
:100FA000F5CF222009F442CEB60180E290E00E9403
:100FB000FB072A94F6CFF6018681978102C08FEF56
:100FC0009FEF2B96E2E10C94B108FC010590615073
:100FD00070400110D8F7809590958E0F9F1F08954F
:100FE000FC016150704001900110D8F780959095F8
:100FF0008E0F9F1F08950F931F93CF93DF93FB01D5
:10100000238121FD03C08FEF9FEF2CC022FF16C06C
:1010100046815781248135814217530744F4A081CA
:10102000B1819D012F5F3F4F318320838C932681B7
:1010300037812F5F3F4F3783268314C08B01EC012C
:10104000FB010084F185E02D0995892BE1F6D8019B
:1010500016968D919C911797019617969C938E9357
:101060001697CE01DF91CF911F910F910895FA014C
:10107000AA27283051F1203181F1E8946F936E7FD7
:101080006E5F7F4F8F4F9F4FAF4FB1E03ED0B4E0C8
:101090003CD0670F781F891F9A1FA11D680F791F09
:1010A0008A1F911DA11D6A0F711D811D911DA11D1A
:1010B00020D009F468943F912AE0269F112430192A
:1010C000305D3193DEF6CF010895462F4770405DC5
:1010D0004193B3E00FD0C9F7F6CF462F4F70405D74
:1010E0004A3318F0495D31FD4052419302D0A9F7CF
:1010F000EACFB4E0A6959795879577956795BA95C9
:10110000C9F700976105710508959B01AC010A2E8E
:1011100006945795479537952795BA95C9F7620F65
:10112000731F841F951FA01D08952F923F924F9209
:101130005F926F927F928F929F92AF92BF92CF9267
:10114000DF92EF92FF920F931F93CF93DF93CDB770
:10115000DEB7CA1BDB0B0FB6F894DEBF0FBECDBFE8
:1011600009942A88398848885F846E847D848C84B9
:101170009B84AA84B984C884DF80EE80FD800C81C2
:101180001B81AA81B981CE0FD11D0FB6F894DEBFA5
:0C1190000FBECDBFED010895F894FFCF15
:10119C000000000200000000890000000000506FF9
:1011AC0074656E74696F6D657465722076616C75AB
:1011BC0065203D202575204F686D0A0054656D70C3
:1011CC00657261747572653A202575206F430A54F7
:0C11DC00696D653A202575206D730A00CE
:00000001FF
