S0200000546865726D6F6D657465725F636F6E74696E756174696F6E2E73726563FE
S11300000C947C000C9499000C9499000C94990025
S11300100C9499000C9499000C9499000C94000190
S11300200C9499000C9499000C9499000C949900E8
S11300300C9499000C9499000C9499000C949900D8
S11300400C9499000C9499000C9499080C949900C0
S11300500C94C9080C9499000C9499000C94990080
S11300600C9499000C9499008A01AC01CF01F10120
S113007013023502570279029B02BD02DF0200031C
S11300806A0389039303B10334043404D303E303FD
S1130090120408000000BE922449123EABAAAA2A08
S11300A0BECDCCCC4C3E00000080BEABAAAAAA3E7A
S11300B000000000BF000000803F000000000008B6
S11300C04178D3BB4387D1133D190E3CC3BD428253
S11300D0AD2B3E68EC8276BED98FE1A93E4C80EF11
S11300E0FFBE01C4FF7F3F00000000006364696E2F
S11300F06F70737578585B0011241FBECFEFD8E082
S1130100DEBFCDBF11E0A0E0B1E0E2EFF3E202C058
S113011005900D92A835B107D9F723E0A8E5B1E021
S113012001C01D92A332B207E1F70E94A0050C940E
S1130130F7110C940000ECE7F0E080818064808388
S1130140EAE7F0E0808187688083089590917C00DD
S1130150907F8F70892B80937C0080917A008064DB
S113016080937A0080917A0086FDFCCF809178009C
S113017090917900089582E8809380008FE193E064
S113018090938700809386001092850010928400DB
S113019010928B0010928A0088EC90E09093890072
S11301A08093880010926F00219A89E180938100E6
S11301B00895CF93DF939FB7F894A1EBB0E01C921E
S11301C0C0EBD0E01882E0E7F0E0108287E087BB64
S11301D010929D0110929E0110929F011092A00115
S11301E01092B2008FE78093B30082E0888385E0A9
S11301F08C938081826080839FBFDF91CF9108952B
S11302001F920F920FB60F9211248F939F93AF9367
S1130210BF938091580190915901A0915A01B091D6
S11302205B010196A11DB11D809358019093590162
S1130230A0935A01B0935B01BF91AF919F918F91AD
S11302400F900FBE0F901F9018952FB7F8946091E0
S113025058017091590180915A0190915B012FBF0F
S11302600895F999FECF92BD81BDF89A80B508959D
S1130270F999FECF07B600FCFDCF92BD81BDF89A77
S113028020B5261771F0A89592BD81BD60BD8FB3CE
S11302908F7C8FBB8FB7F894FA9AF99A8FBFF9992C
S11302A0FECF08951F93CF93DF93EC01172F0E9485
S11302B03801612FCE010196DF91CF911F910C94EB
S11302C038010F931F93CF938C010E943101C82FE3
S11302D0C80101960E9431012C2F30E0A901582B4E
S11302E0CA01CF911F910F910895CF92DF92EF929F
S11302F0FF920F931F930E942501E09164010E2F3A
S113030010E00C30110508F09DC1F801EC5CFF4FC2
S11303100C94AF0B5C9A5A980091600110916101A2
S113032020916201309163016B017C01C01AD10AF2
S1130330E20AF30A97018601083C110521053105FB
S113034008F480C16093600170936101809362013D
S11303509093630181E074C15C9A5A9A00916001A0
S11303601091610120916201309163016B017C0164
S1130370C01AD10AE20AF30A40E2C41643E0D406E2
S1130380E104F10408F45EC16093600170936101BB
S113039080936201909363011092640153C15C9A4B
S11303A05A9800916001109161012091620130918D
S11303B063016B017C01C01AD10AE20AF30A40E22C
S11303C0C41643E0D406E104F10408F43BC160938D
S11303D0600170936101809362019093630183E0F3
S11303E02FC15C9A5A9A0091600110916101209189
S11303F06201309163016B017C01C01AD10AE20AE7
S1130400F30A97018601083C11052105310508F41A
S113041019C16093600170936101809362019093AC
S1130420630182E00DC15C9A5A98009160011091B9
S1130430610120916201309163016B017C01C01A5A
S1130440D10AE20AF30A970186010A3F1105210540
S1130450310508F4F7C060936001709361018093E3
S113046062019093630185E0EBC05C9A5A9A009113
S113047060011091610120916201309163016B016F
S11304807C01C01AD10AE20AF30A970186010A3FE5
S113049011052105310508F4D5C0609360017093FE
S11304A06101809362019093630184E0C9C05A9A08
S11304B05C9800916001109161012091620130917A
S11304C063016B017C01C01AD10AE20AF30A9701A5
S11304D08601083C11052105310508F4B3C0609379
S11304E0600170936101809362019093630187E0DE
S11304F0A7C05A9A5C9A0091600110916101209101
S11305006201309163016B017C01C01AD10AE20AD5
S1130510F30A40E2C41643E0D406E104F10408F40B
S113052091C0609360017093610180936201909324
S1130530630186E085C05A9A5C980091600110912D
S1130540610120916201309163016B017C01C01A49
S1130550D10AE20AF30A97018601083C1105210534
S1130560310508F46FC0609360017093610180935A
S113057062019093630189E063C05A9A5C9A009186
S113058060011091610120916201309163016B015E
S11305907C01C01AD10AE20AF30A97018601083CD9
S11305A011052105310508F44DC060936001709375
S11305B0610180936201909363018AE041C05A9A79
S11305C05C98009160011091610120916201309169
S11305D063016B017C01C01AD10AE20AF30A970194
S11305E08601083C11052105310560F16093600125
S11305F07093610180936201909363018BE020C04A
S11306005A9A5C9A009160011091610120916201F3
S1130610309163016B017C01C01AD10AE20AF30A2A
S113062040E2C41643E0D406E104F10458F06093B8
S1130630600170936101809362019093630188E08B
S1130640809364011F910F91FF90EF90DF90CF9002
S113065008952FE133E0DC010E94B50B24E630E07D
S113066040E050E00E948D0B309389002093880075
S113067008955D9808955D9A0895CF92DF92EF9260
S1130680FF920E9425016B017C01809172018823F5
S113069039F080916F01843018F484E080936F0105
S11306A080916501882349F080916F01811103C015
S11306B086E080936F0110926501E0916F018E2FA7
S11306C090E08930910508F0CFC0FC01E05CFF4F59
S11306D00C94AF0B60911D0270911E02072E000C4A
S11306E0880B990B0E94E60920910E0130910F01AD
S11306F040911001509111010E94960A18160CF0B5
S1130700B3C080919B0190919C010E94290381E0D8
S113071086C0C0926B01D0926C01E0926D01F092A0
S11307206E0182E07CC080916B0190916C01A0917C
S11307306D01B0916E01C81AD90AEA0AFB0A8091C8
S11307401B0290911C02092E000CAA0BBB0BC816AD
S1130750D906EA06FB0608F487C00E94390383E041
S11307605EC06091B5017091B601072E000C880B34
S1130770990B0E94E60920910E0130910F014091DE
S11307801001509111010E946D0918160CF46CC0EF
S113079080911F02909120020E9429030E943B0332
S11307A010926F0161C080919B0190919C010E9405
S11307B02903C0926B01D0926C01E0926D01F0921A
S11307C06E0187E02CC080916B0190916C01A09127
S11307D06D01B0916E01B701A601481B590B6A0B5C
S11307E07B0B80911B0290911C02092E000CAA0B1A
S11307F0BB0B481759076A077B07B0F180919B012F
S113080090919C010E9429030E943903C0926B01BC
S1130810D0926C01E0926D01F0926E0188E08093B9
S11308206F0122C080916B0190916C01A0916D01C8
S1130830B0916E01C81AD90AEA0AFB0A80EEC816FA
S113084083E9D80684E0E806F10470F010926F01A1
S113085080911F02909120020E942903FF90EF9043
S1130860DF90CF900C943B03FF90EF90DF90CF90FC
S113087008958F929F92AF92BF92CF92DF92EF92A0
S1130880FF92809172018111F8C00E942501C090ED
S11308907D01D0907E01E0907F01F0908001DC0129
S11308A0CB018C199D09AE09BF09C297A105B105F9
S11308B008F4E3C00E94250160937D0170937E01DA
S11308C080937F019093800180E00E94A600BC0188
S11308D080E090E00E94E4096B017C0120E030E4B8
S11308E04CE156E40E94EB0A4B015C01A70196011E
S11308F060E070E080E894E40E9400099B01AC0190
S1130900C501B4010E94720920E030E44CE156E4D0
S11309100E9472090E94A30A60935C0170935D01B6
S113092080935E0190935F0120E030EB46E555E44F
S11309300E9472092FE03FEC4BE55BE30E94010942
S11309409B01AC0160E070E080E89FE30E947209C3
S113095023E333E948E853E40E9400096B017C0176
S113096020E030E048E452EC0E946D0987FD0AC0A3
S113097020E030E044EB52E4C701B6010E94960A3D
S113098087FD0AC08091750190917601019690933C
S11309907601809375011DC080917301909174015B
S11309A001969093740180937301A701960160915D
S11309B0790170917A0180917B0190917C010E9470
S11309C001096093790170937A0180937B0190937C
S11309D07C01809177019091780101969093780140
S11309E080937701889708F448C0809175019091AD
S11309F076014E9780F081E08093720180E090E070
S1130A00A8ECB1E480930E0190930F01A093100120
S1130A10B09311011EC01092720160917301709124
S1130A20740180E090E00E94E4099B01AC016091B4
S1130A30790170917A0180917B0190917C010E94EF
S1130A40720960930E0170930F01809310019093CB
S1130A5011011092790110927A0110927B01109287
S1130A607C01109278011092770110927601109215
S1130A7075011092740110927301FF90EF90DF9052
S1130A80CF90BF90AF909F908F9008950F931F9336
S1130A9080916A018130A9F030F0823071F18330A5
S1130AA009F449C04AC04B9948C00E94250160938B
S1130AB0660170936701809368019093690181E0F6
S1130AC037C04B9B03C010926A0137C00E942501B6
S1130AD000916601109167012091680130916901CC
S1130AE0DC01CB01801B910BA20BB30B8436910567
S1130AF0A105B10510F182E01BC04B99E4CF0E941F
S1130B0025010091660110916701209168013091DF
S1130B106901DC01CB01801B910BA20BB30B883E56
S1130B209340A105B10548F081E08093650183E01D
S1130B3080936A0102C04B99C6CF1F910F9108950B
S1130B40CF93DF93CDB7DEB7AC970FB6F894DEBF83
S1130B500FBECDBF0E949B0083E390E00E946C080F
S1130B6080E091E09093200380931F035D9A529A52
S1130B7053985B9A549A559A389880E090E00E9472
S1130B80310190E090931E0280931D0281E090E079
S1130B900E94310190E09093B6018093B50182E008
S1130BA090E00E94310190E09093200280931F0214
S1130BB083E090E00E94310190E090939C01809347
S1130BC09B0184E090E00E94310190E090931C022C
S1130BD080931B020E94BB000E94D900789480E09D
S1130BE090E00E94310190E090931E0280931D02D8
S1130BF081E090E00E94310190E09093B6018093EF
S1130C00B50182E090E00E94310190E090932002CF
S1130C1080931F0283E090E00E94310190E0909362
S1130C209C0180939B0184E090E00E946101909379
S1130C301C0280931B0240911D0250911E029A01D6
S1130C40235031092632310568F52091B5013091E0
S1130C50B601B901635071096632710518F52E5F4A
S1130C603F4F24173507F4F040911F0250912002A2
S1130C709A012F50310926353105A0F420919B01AA
S1130C8030919C01B9016F5071096635710550F4BA
S1130C90295D3F4F241735072CF0885E9340813B34
S1130CA09643E8F185E090E090931E0280931D0244
S1130CB08FE090E09093B6018093B50184E190E0D9
S1130CC09093200280931F0280E590E090939C0112
S1130CD080939B0188EB9BE090931C0280931B0202
S1130CE065E080E090E00E9438016091B50181E008
S1130CF090E00E94380160911F0282E090E00E941F
S1130D00380160919B0183E090E00E94380160917A
S1130D101B0270911C0284E090E00E945201EE24B8
S1130D20EA94FE2C6E013FE1C30ED11C5E0181E208
S1130D30A80EB11C4E0193E2890E911C1E01A5E27E
S1130D402A0E311C2E01B7E24B0E511C9EE2692E75
S1130D5091E0792E8E010F5F1F4F0E9439040E948B
S1130D603D030E9475010E94460586E891E00E94B9
S1130D702408882391F32091860180EE820F8F3519
S1130D8038F02D3029F01092710110927001E5CFE6
S1130D908091700190917101FC01E751FE4F208315
S1130DA08D3191052CF4019690937101809370011B
S1130DB02D3099F643E050E069EE71E082E191E074
S1130DC00E94CB0B892B19F580911C028F93809183
S1130DD01B028F9380919C018F9380919B018F9331
S1130DE0809120028F9380911F028F938091B6018E
S1130DF08F938091B5018F9380911E028F93809180
S1130E001D028F93E6E1F1E0FF93EF93B9C043E055
S1130E1050E069EE71E08AE291E00E94CB0B892BED
S1130E2009F0C3C0F8A6EFA2FEA2EDA2FCA2EBA2B9
S1130E30FAA2E9A2F8A2EF8EDF92CF92BF92AF920C
S1130E409F928F923F922F925F924F927F926F92D6
S1130E50ACEEB1E0BF93AF930E94FB0B0FB6F894D6
S1130E60DEBF0FBECDBF059709F09FC06FA178A567
S1130E70CB010397869708F098C04DA15EA1CA01E3
S1130E800397869708F091C02BA13CA1C901409714
S1130E908435910508F089C089A19AA1FC013F9786
S1130EA0E635F10508F081C0FA013296E617F70736
S1130EB00CF47BC0FC01B796E217F3070CF475C081
S1130EC0AF8DB8A1BCA7ABA7A85EB340A13BB64306
S1130ED008F06BC070931E0260931D025093B6011C
S1130EE04093B5013093200220931F0290939C01FC
S1130EF080939B012BA53CA530931C0220931B02DD
S1130F0080E090E00E9438016091B50181E090E0BA
S1130F100E94380160911F0282E090E00E94380133
S1130F2060919B0183E090E00E94380160911B0274
S1130F3070911C0284E090E00E94520180911C0296
S1130F408F9380911B028F9380919C018F9380914A
S1130F509B018F93809120028F9380911F028F9326
S1130F608091B6018F938091B5018F9380911E0279
S1130F708F9380911D028F938DE391E09F938F93C4
S1130F801F930F930E94D90BF80101900020E9F7F9
S1130F903197BF01601B710BC8010E9446080FB650
S1130FA0F894DEBF0FBECDBFEECE65E081E591E0E3
S1130FB00E944608E8CEDC019FB7F894462F50E023
S1130FC0E8ECF0E0809183019F01281B310924178C
S1130FD0350744F47894A895000000000000000050
S1130FE0F894F0CF8091810181110CC08091C100EF
S1130FF08E7F8093C1008D918093C60081E08093A1
S11310008101615080918201E0918301F0E0E80F59
S1131010F11DEB5AFD4F83E0ED31F80788F0E85CF1
S1131020F109F9CF8D918193809183018F5F809332
S1131030830183E0ED31F80710F0E5E5F2E061505B
S11310406111F0CF9FBF0895DC019FB7F8948091A0
S11310508501811102C09FBF0895E0918401F0E0F1
S1131060ED5DFD4F80818C93809184018F5F82338D
S113107018F48093840102C0109284018091850148
S11310808150809385019FBF81E008952FEF260F43
S1131090283C10F40C94DB070895CF93DF931F9240
S11310A0CDB7DEB7898361E0CE0101960E94DB07EC
S11310B00F90DF91CF9108952FB7F8948091830119
S11310C0811105C09091810181E0892702C080E0EF
S11310D090E02FBF817008950F931F93CF938C01DD
S11310E0CFB7F8948091C10083FF06C078940E9422
S11310F05C088823E1F3F8941092C1001092C000B8
S113110086E08093C20010928501109284011092AF
S1131110830110928201109281011093C500009303
S1131120C40088ED8093C100CFBFCF911F910F9170
S113113008951F920F920FB60F9211242F938F933D
S11311409F93EF93FF938091C0009091C60082FD1E
S113115016C080918501823390F420918401E82F98
S1131160F0E0E20FF11DED5DFD4F22E0E535F20701
S113117010F0F297FACF90838F5F80938501FF91EF
S1131180EF919F918F912F910F900FBE0F901F9011
S113119018951F920F920FB60F9211248F93EF930D
S11311A0FF931092810180918301882309F180913A
S11311B0C1008E7F8093C100E0918201F0E0EB5A80
S11311C0FD4F80818093C60081E0809381018091EE
S11311D08301815080938301811103C010928201A5
S11311E007C0809182018F5F80938201883CB0F7B1
S11311F0FF91EF918F910F900FBE0F901F90189554
S11312005058BB27AA270E9418090C945C0A0E9414
S11312104E0A38F00E94550A20F039F49F3F19F421
S113122026F40C944B0A0EF4E095E7FB0C94450A63
S1131230E92F0E946D0A58F3BA17620773078407EF
S1131240950720F079F4A6F50C948F0A0EF4E09536
S11312500B2EBA2FA02D0B01B90190010C01CA016C
S1131260A0011124FF27591B99F0593F50F4503E17
S113127068F11A16F040A22F232F342F4427585F09
S1131280F3CF469537952795A795F0405395C9F721
S11312907EF41F16BA0B620B730B840BBAF09150D9
S11312A0A1F0FF0FBB1F661F771F881FC2F70EC078
S11312B0BA0F621F731F841F48F48795779567954B
S11312C0B795F7959E3F08F0B0CF9395880F08F037
S11312D09927EE0F9795879508950E94210A08F49F
S11312E081E008950E9486090C945C0A0E94550AC4
S11312F058F00E944E0A40F029F45F3F29F00C9404
S1131300450A51110C94900A0C944B0A0E946D0AE0
S113131068F39923B1F3552391F3951B550BBB2720
S1131320AA2762177307840738F09F5F5F4F220F65
S1131330331F441FAA1FA9F335D00E2E3AF0E0E85C
S113134032D091505040E695001CCAF72BD0FE2FA6
S113135029D0660F771F881FBB1F2617370748073A
S1131360AB07B0E809F0BB0B802DBF01FF279358F2
S11313705F4F3AF09E3F510578F00C94450A0C9467
S1131380900A5F3FE4F3983ED4F38695779567958A
S1131390B795F7959F5FC9F7880F911D9695879527
S11313A097F90895E1E0660F771F881FBB1F621746
S11313B073078407BA0720F0621B730B840BBA0B04
S11313C0EE1F88F7E0950895E89409C097FB3EF472
S11313D090958095709561957F4F8F4F9F4F99237E
S11313E0A9F0F92F96E9BB279395F69587957795FC
S11313F06795B795F111F8CFFAF4BB0F11F460FFBC
S11314001BC06F5F7F4F8F4F9F4F16C0882311F013
S113141096E911C0772321F09EE8872F762F05C027
S1131420662371F096E8862F70E060E02AF09A95C2
S1131430660F771F881FDAF7880F9695879597F9B7
S11314400895990F0008550FAA0BE0E8FEEF161651
S11314501706E807F907C0F012161306E407F507A4
S113146098F0621B730B840B950B39F40A2661F018
S1131470232B242B252B21F408950A2609F4A140BB
S1131480A6958FEF811D811D089597F99F6780E8C8
S113149070E060E008959FEF80EC089500240A94C2
S11314A01616170618060906089500240A9412163B
S11314B01306140605060895092E0394000C11F46E
S11314C0882352F0BB0F40F4BF2B11F460FF04C01B
S11314D06F5F7F4F8F4F9F4F089557FD9058440F74
S11314E0551F59F05F3F71F04795880F97FB991F7F
S11314F061F09F3F79F0879508951216130614063C
S1131500551FF2CF4695F1DF08C0161617061806C8
S1131510991FF1CF86957105610508940895E894A3
S1131520BB2766277727CB0197F908950E94210AE4
S113153008F48FEF089516F00C94580B0C944B0A92
S113154068940C94450A0E94750AA8F39923C1F380
S1131550AEF3DF93CF931F930F93FF92C92FDD2731
S113156088232AF02197660F771F881FDAF720E077
S113157030E040E85FEB9FE3883920F0803E38F0AC
S113158021968F770E940109E2E9F0E004C00E94ED
S11315900109EFEBF0E00E94660B8B01BE01EC0148
S11315A0FB2E6F5771097595771F880B990B0E9455
S11315B0E60928E132E741E35FE30E94FE0AAF2D2A
S11315C09801AE01FF900F911F91CF91DF910E947E
S11315D018090C945C0A0E94FE0A0C945C0A0E948E
S11315E04E0A38F00E94550A20F0952311F00C940D
S11315F0450A0C944B0A11240C94900A0E946D0A1B
S113160070F3959FC1F3950F50E0551F629FF00151
S1131610729FBB27F00DB11D639FAA27F00DB11D6A
S1131620AA1F649F6627B00DA11D661F829F2227F3
S1131630B00DA11D621F739FB00DA11D621F839F7A
S1131640A00D611D221F749F3327A00D611D231F50
S1131650849F600D211D822F762F6A2F11249F579E
S113166050409AF0F1F088234AF0EE0FFF1FBB1FA1
S1131670661F771F881F91505040A9F79E3F510560
S113168080F00C94450A0C94900A5F3FE4F3983E72
S1131690D4F3869577956795B795F795E7959F5F0A
S11316A0C1F7FE2B880F911D9695879597F908959C
S11316B09F3F31F0915020F4879577956795B795C2
S11316C0880F911D9695879597F90895DF93CF9389
S11316D01F930F93FF92EF92DF927B018C0168942A
S11316E006C0DA2EEF010E94FE0AFE01E894A591DD
S11316F02591359145915591A6F3EF010E94180962
S1131700FE019701A801DA9469F7DF90EF90FF904A
S11317100F911F91CF91DF910895A1E21A2EAA1B78
S1131720BB1BFD010DC0AA1FBB1FEE1FFF1FA2178D
S1131730B307E407F50720F0A21BB30BE40BF50B8A
S1131740661F771F881F991F1A9469F76095709513
S1131750809590959B01AC01BD01CF010895EE0FDA
S1131760FF1F0590F491E02D09940E94BC0BB7FF74
S11317700895821B930B0895A29FB001B39FC001EB
S1131780A39F700D811D1124911DB29F700D811DA9
S11317901124911D0895FB01DC014150504030F0AB
S11317A08D910190801919F40020B9F7881B990BC9
S11317B00895AEE0B0E0EFEDFBE00C94CE110D899E
S11317C01E8986E08C831A8309838FEF9FE79E83AB
S11317D08D83AE01475E5F4F6F89788DCE01019690
S11317E00E94140CEF81F885E00FF11F10822E96F1
S11317F0E4E00C94EA11AEE0B0E0E1E0FCE00C942B
S1131800D01185E08C838B899C899A838983AE016E
S1131810495E5F4F6D897E89CE0101960E94910FCA
S11318202E96E2E00C94EC11ABE0B0E0EAE1FCE0CF
S11318300C94C0116C017B018A01FC011782168291
S1131840838181FFCCC1CE0101963C01F6019381D5
S1131850F70193FD859193FF81917F01882309F41A
S1131860BAC1853239F493FD859193FF81917F014B
S1131870853229F4B60190E00E940A11E7CF912C39
S1131880212C312CFFE1F315D8F08B3279F038F4A8
S1131890803279F08332A1F4232D20611DC08D3272
S11318A061F0803369F4232D216016C0832D82609A
S11318B0382EE32DE4603E2E2AC0F32DF8601DC0BF
S11318C037FC2DC020ED280F2A3040F08E32B9F4B9
S11318D036FC81C1232D2064322E19C036FE06C089
S11318E08AE0989E200D1124922E11C0EAE02E9ECB
S11318F0200D1124222EF32DF0623F2E08C08C36C9
S113190021F4832D8068382E02C0883641F4F70113
S113191093FD859193FF81917F018111B3CF982F1E
S11319209F7D9554933028F40C5F1F4F9FE3998358
S11319300DC0833631F0833771F0833509F059C017
S113194021C0F801808189830E5F1F4F882483940E
S1131950912C530113C02801F2E04F0E511CF801E1
S1131960A080B18036FE03C0692D70E002C06FEF25
S11319707FEFC5010E94C1104C018201F32DFF7756
S11319803F2E16C0280122E0420E511CF801A0800F
S1131990B18036FE03C0692D70E002C06FEF7FEFA7
S11319A0C5010E94B6104C01F32DF0683F2E820150
S11319B033FC1BC0822D90E088169906B0F4B60162
S11319C080E290E00E940A112A94F4CFF50137FCDA
S11319D0859137FE81915F01B60190E00E940A1162
S11319E021102A9421E0821A91088114910471F73C
S11319F0E8C0843611F0893641F5F80137FE07C096
S1131A0060817181828193810C5F1F4F08C0608166
S1131A107181072E000C880B990B0E5F1F4FF32D5D
S1131A20FF763F2E97FF09C090958095709561953C
S1131A307F4F8F4F9F4FF0683F2E2AE030E0A30185
S1131A400E945F11882E861845C0853731F4232DF6
S1131A502F7EB22E2AE030E025C0932D997FB92E37
S1131A608F36C1F018F4883579F0B5C0803719F095
S1131A70883721F0B0C0E92FE061BE2EB4FE0DC05E
S1131A80FB2DF460BF2E09C034FE0AC0292F266046
S1131A90B22E06C028E030E005C020E130E002C0EC
S1131AA020E132E0F801B7FE07C0608171818281D4
S1131AB093810C5F1F4F06C06081718180E090E0CC
S1131AC00E5F1F4FA3010E945F11882E8618FB2D05
S1131AD0FF773F2E36FE0DC0232D2E7FA22E8914B4
S1131AE058F434FE0BC032FC09C0832D8E7EA82E20
S1131AF005C0B82CA32C03C0B82C01C0B92CA4FE7B
S1131B000FC0FE01E80DF11D8081803321F49A2D70
S1131B10997EA92E09C0A2FE06C0B394B39404C052
S1131B208A2D867809F0B394A3FC11C0A0FE06C0E8
S1131B30B21488F4280C922C9B180EC0B21460F4D2
S1131B40B60180E290E00E940A11B394F7CFB21478
S1131B5018F42B1802C0982C212CA4FE10C0B60136
S1131B6080E390E00E940A11A2FE17C0A1FC03C00A
S1131B7088E790E002C088E590E0B6010CC08A2DA9
S1131B80867859F0A1FE02C08BE201C080E2A7FC76
S1131B908DE2B60190E00E940A11891438F4B6016E
S1131BA080E390E00E940A119A94F7CF8A94F3019B
S1131BB0E80DF11D8081B60190E00E940A118110A8
S1131BC0F5CF222009F442CEB60180E290E00E94D3
S1131BD00A112A94F6CFF6018681978102C08FEF0D
S1131BE09FEF2B96E2E10C94DC1120FD09C0FC016F
S1131BF023FD05C022FF02C07383628351834083A7
S1131C00089544FD17C046FD17C0AB01BC01DA01BD
S1131C10FB01AA0FBB1FEE1FFF1F1094D1F74A0F41
S1131C205B1F6E1F7F1FCB01BA01660F771F881FD2
S1131C30991F09C033E001C034E0660F771F881F85
S1131C40991F3150D1F7620F711D811D911D0895A7
S1131C500F931F93CF93DF938C01C8010E94CC1084
S1131C60EC0197FD08C00E94A210892BB1F7B801BE
S1131C70CE010E944611CE01DF91CF911F910F91A9
S1131C8008958F929F92AF92BF92EF92FF920F931B
S1131C901F93CF93DF938C01D62F7A01B22E0E942B
S1131CA0CC109C0133272B32310531F02D32310514
S1131CB061F48B2D8068B82ED15011F480E068C097
S1131CC0C8010E94CC1097FDF9CFCB2DCD7F2B2DD1
S1131CD0207309F58033F9F4AA24AA94AD0E09F40B
S1131CE043C0C8010E94CC1097FD3EC09C012F7DCB
S1131CF033272835310549F4C264D250A9F1C8010B
S1131D000E94CC1097FF07C02FC0B6FE02C0C2606D
S1131D1001C0C261DA2D812C912C540120ED280FD1
S1131D20283080F0C4FF04C0B8010E94461119C0D5
S1131D302A3040F0C6FFF8CF2F7D3FEE320F363009
S1131D4098F727504C2FC501B4010E94010E4B0196
S1131D505C01C260D15059F0C8010E94CC1097FFB9
S1131D60DDCFC1FD04C0AACF812C912C5401C7FF43
S1131D7008C0B094A09490948094811C911CA11CE0
S1131D80B11C2C2FB501A401C7010E94F50D81E0FF
S1131D90DF91CF911F910F91FF90EF90BF90AF9083
S1131DA09F908F900895A0E2B0E0E9EDFEE00C94DE
S1131DB0C3115C01962E7A01F9018E010F5F1F4F4A
S1131DC0680180E2D8011D928A95E9F7D50113963E
S1131DD08C9080E090E0612C712C30E061E070E048
S1131DE083FC259183FE21918F01522E211103C082
S1131DF080E090E092C02E3511F4009751F1432F0A
S1131E0050E0481759073CF42D3559F12D3219F497
S1131E10772009F103C0772009F46AC0452D46955F
S1131E2046954695D601A40FB11D452D47708B01EB
S1131E3002C0000F111F4A95E2F7A8015C91452BDF
S1131E404C93651459F0561410F45394E7CF5A94F4
S1131E50E5CF31E004C07724739401C0712C01965E
S1131E60BFCF772019F08E8180628E83311103C039
S1131E708824839417C0F6019E012F5D3F4F808113
S1131E80809581932E173F07D1F7F2CFE114F10427
S1131E9029F0D7018C93F70131967F019A94812C14
S1131EA09920F9F0C5010E94CC1097FD18C0FC01DF
S1131EB0FF2723E0F595E7952A95E1F7EC0DFD1D45
S1131EC0208130E0AC014770552702C03595279535
S1131ED04A95E2F720FDDACFB5010E944611811040
S1131EE087CFE114F10411F0D7011C92C80115C089
S1131EF0422F469546954695D601A40FB11D422F13
S1131F0047708B0102C0000F111F4A95E2F7A80128
S1131F105C91452B4C93622EA2CFA096EFE00C94DB
S1131F20DF11A0E0B0E0E7E9FFE00C94C3116C011D
S1131F30EB015A01FC0117821682512CF601E38051
S1131F40FE01E3FC8591E3FE8191182FEF018823C4
S1131F5009F4EEC090E00E94A210892B21F0C60182
S1131F600E94280EEBCF153241F4FE01E3FC1591DB
S1131F70E3FE1191EF01153281F4C6010E94CC10E9
S1131F8097FDD4C0412F50E09C0133272417350717
S1131F90A9F2B6010E944611CBC01A3239F4E3FC0F
S1131FA01591E3FE1191EF0101E001C000E0F12C75
S1131FB020ED210F2A3080F402606F2D70E080E064
S1131FC090E040E20E94010EF62EFE01E3FC159122
S1131FD0E3FE1191EF01ECCF01FF03C0F11003C048
S1131FE0A7C0FF24FA94183619F01C3651F010C01B
S1131FF0FE01E3FC1591E3FE1191EF01183641F463
S113200008600460FE01E3FC1591E3FE1191EF0109
S1132010112309F48DC0612F70E08CEE90E00E94D2
S1132020AB10892B09F484C000FD07C0F501808042
S11320309180C50102965C0102C0812C912C1E3650
S113204051F4F6014681578160E070E0202FC4010D
S11320500E94F50D73CF1336A9F401FD02C0FF24CD
S1132060F394C6010E94CC1097FD60C081149104C2
S113207029F0F4018083C40101964C01FA94F11013
S1132080F0CF50C01B3559F49E01A4016F2DC60139
S11320900E94D30EEC01892B09F044C03EC0C60156
S11320A00E94280E97FD42C01F3661F128F41436B1
S11320B039F1193651F128C0133771F0153701F190
S11320C023C08114910429F0F4016082C4010196B3
S11320D04C01FA94FF2071F0C6010E94CC103C011F
S11320E097FD08C00E94A210892B59F3B601C301C1
S11320F00E94461181149104A9F0F401108212C0C7
S1132100006203C0006101C00064202FA4016F2D90
S1132110C6010E94410E811105C0F60183818073BE
S113212029F406C000FD0ACF539408CF552019F0B6
S1132130852D90E002C08FEF9FEFCDB7DEB7EFE0C3
S11321400C94DF1191110C94BD11803219F0895057
S11321508550C8F70895FC010590061621F000206B
S1132160D9F7C00108953197CF010895FC01059076
S1132170615070400110D8F7809590958E0F9F1F85
S11321800895FC016150704001900110D8F78095CA
S113219090958E0F9F1F0895CF93DF93EC012B81B1
S11321A020FF33C026FF0AC02F7B2B838E819F81A3
S11321B001969F838E838A8190E029C022FF0FC0FD
S11321C0E881F9818081082E000C990B009719F49D
S11321D020622B831AC03196F983E8830EC0EA8506
S11321E0FB85099597FF09C02B81019611F080E2C8
S11321F001C080E1822B8B8308C02E813F812F5F39
S11322003F4F3F832E83992702C08FEF9FEFDF91CB
S1132210CF9108950F931F93CF93DF93FB012381F5
S113222021FD03C08FEF9FEF2CC022FF16C0468113
S11322305781248135814217530744F4A081B18129
S11322409D012F5F3F4F318320838C9326813781FB
S11322502F5F3F4F3783268314C08B01EC01FB01B2
S11322600084F185E02D0995892BE1F6D8011696B5
S11322708D919C911797019617969C938E93169720
S1132280CE01DF91CF911F910F910895FB0123811E
S113229020FF12C026FD10C08F3F3FEF930761F06F
S11322A082832F7D20642383268137812150310945
S11322B037832683992708958FEF9FEF0895FA01B6
S11322C0AA27283051F1203181F1E8946F936E7F71
S11322D06E5F7F4F8F4F9F4FAF4FB1E03ED0B4E062
S11322E03CD0670F781F891F9A1FA11D680F791FA3
S11322F08A1F911DA11D6A0F711D811D911DA11DB4
S113230020D009F468943F912AE0269F11243019C3
S1132310305D3193DEF6CF010895462F4770405D5E
S11323204193B3E00FD0C9F7F6CF462F4F70405D0D
S11323304A3318F0495D31FD4052419302D0A9F768
S1132340EACFB4E0A6959795879577956795BA9562
S1132350C9F700976105710508959B01AC010A2E28
S113236006945795479537952795BA95C9F7620FFF
S1132370731F841F951FA01D08959927882708950A
S11323802F923F924F925F926F927F928F929F9281
S1132390AF92BF92CF92DF92EF92FF920F931F936F
S11323A0CF93DF93CDB7DEB7CA1BDB0B0FB6F89420
S11323B0DEBF0FBECDBF09942A88398848885F8460
S11323C06E847D848C849B84AA84B984C884DF80D1
S11323D0EE80FD800C811B81AA81B981CE0FD11DB5
S11323E00FB6F894DEBF0FBECDBFED010895F8948B
S10523F0FFCF19
S11323F200000002000000004D0800000000000080
S1132402C84172630D00726320256420256420256F
S1132412642025642025640D0A0077632000256466
S11324222025642025642025642025640077632008
S113243225642025642025642025642025640D0A52
S10B2442006572720D0A00002E
S9030000FC
